:02000000AB282B
:0E0006008312031321088A00200882000800DC
:1000140083120313FB01FA01F9018030F800F10C9B
:10002400F00C031C1E287408F90775080318750FD3
:10003400FA070318FB0A0310F01F26287408FA07AE
:1000440075080318750FFB07FB0CFA0CF90CF80C78
:10005400031C11287B08F3007A08F2007908F100E8
:060064007808F00008001E
:0C006A008312031395011712971208006F
:1000760003208A110A128000840AA00A0319A10A21
:08008600F003031D3B280800F4
:10008E00831603131208013EF000F1010318F10A62
:10009E0083122308F400F5010A200630F2007008DE
:1000AE00F4007108F500720803196228F50CF40CBF
:1000BE00F513FF3E5B280430F1007408F000710860
:1000CE0003196D28F00D7010FF3E67283030700553
:1000DE00F3007408F0007508F100F10CF00CF11348
:1000EE00F10CF00CF113700895000F3097057308A2
:0400FE00970408005B
:10010200831603130711831212150C30970408008B
:10011200831603139816903083129800831687175C
:10012200071383128C1E98281A08F00092280800E0
:0E0132000030831203138C1A0130F000080015
:10014000831203131A08F100981CA8281812181615
:060150007108F000080038
:1001560083120313121492107C30831692003520FA
:1001660081207F30A3004720831688013330990011
:10017600181589200B30FB002630FC005D30FD0091
:10018600FD0BC328FC0BC328FB0BC3280000000093
:100196009920700803194029A0207008A200700851
:1001A600313A031DE82808148810081288160B3007
:1001B600FB002630FC005D30FD00FD0BE028FC0B4B
:1001C600E028FB0BE028000000002208323A031D5D
:1001D600FE2808108814081688120B30FB002630FB
:1001E600FC005D30FD00FD0BF628FC0BF628FB0B32
:1001F600F628000000002208333A031D14290814CB
:100206008810081688160B30FB002630FC005D307F
:10021600FD00FD0B0C29FC0B0C29FB0B0C29000027
:1002260000002208343A031D2A29081488140816E7
:1002360088120B30FB002630FC005D30FD00FD0B04
:100246002229FC0B2229FB0B222900000000220890
:10025600353A031D402908148814081688160B30F1
:10026600FB002630FC005D30FD00FD0B3829FC0B41
:0E0276003829FB0B382900000000CB28412955
:02400E004A2F37
:00000001FF
