:020000002529B0
:0E000600213083120313FD00FD0B07280800B4
:06001400000000000800DE
:10001A000F3083120313FC004730FD00FD0B132839
:0A002A00FC0B132800000000080082
:1000340083120313B91B2028871221288716391B22
:100044002528071226280716B91A2A2887112B28CB
:100054008715391A2F280711302807153018342826
:1000640007143528071087140A208710B9193C286B
:1000740087123D2887163919412807124228071686
:10008400B918462887114728871539184B280711AE
:100094004C280715301850280714512807108714C6
:1000A4000A208710301C58280D20592803200800E6
:1000B4008312031330103808B9001A2030140800D2
:0E00C4008312031333088A00320882000800FA
:1000D200831603138710071007118711071287125F
:1000E20083128710071087120712871107110D203C
:1000F2000D200D208715071587140A2087100D2063
:1001020087140A2087100D2087140A2087100D20DB
:10011200071187140A2087100D2087140A208710E0
:100122008711871687140A2087100D20871207155A
:1001320087140A208710071187140A2087100D20C0
:1001420087140A208710071587140A2087100D20AC
:10015200071187140A2087108716071687150715B7
:0C01620087140A2087100D2030140800BC
:10016E00C928803083120313B400DC28C030B400D9
:10017E00DC289430B400DC28D430B400DC28803085
:10018E00B400DC28831203133408013A0319B8288B
:10019E003408023A0319BD283408033A0319C0285B
:1001AE003408043A0319C328C6283503F00034086E
:1001BE00F0077008B4007008B9001A203010B701AB
:1001CE0037083607840000080319F5283708360764
:1001DE0084000008B8005A20B70AE7283014080037
:1001EE008316031398169030831298008316871780
:1001FE00071383128C1E06291A08F0000029080026
:0E020E000030831203138C1A0130F000080038
:10021C00831203131A08F100981C162918121816C9
:06022C007108F00008005B
:1002320062208A110A128000840AB20A0319B30AE0
:08024200F003031D1929080057
:10024A00453083120313A0004D30A1004230A200B2
:10025A004530A3004430A4004430A5004530A60030
:10026A004430A7002030A8005330A9005930AA0012
:10027A005330AB005430AC004530AD004D30AE00C9
:10028A00AF0169203330831699001815F720013021
:10029A00B9001A200C30B9001A200130B40001301C
:1002AA00B5002030B600B7201530FB004B30FC00FB
:1002BA00BE30FD00FD0B5F29FC0B5F29FB0B5F299C
:1002CA0000000130B9001A200721700803197E299D
:1002DA000E217008B1007008413A031D7B290130D4
:1002EA00B9001A200230B9001A207E293108B80054
:0602FA005A2069297F294A
:02400E004A2F37
:00000001FF
