:02000000332BA0
:0E000600F201F101F001F801F30100300800F1
:08001400FA1FF213003008008E
:10001C007B15FB1F18280130F300F201F101F001F0
:08002C00FA0DF20CFF30080090
:1000340083120313F801F9011030FC00710DF80D5F
:10004400F90D7408F8027508031C750FF9020318FA
:1000540032287408F80775080318750FF907031098
:0A006400F00DF10DFC0B2028080040
:10006E008316031398183D2800003728831247087B
:04007E0099000800DD
:0E0082008312031323088A002208820008005C
:10009000A0017208031D5D287108F2007008F100CC
:1000A000F001A0157208031D5D287108F200F1012E
:1000B000A0112016720803196B282008F302031DF3
:1000C000031C6F280310F21B7328F00DF10DF20DC5
:1000D000F30B63286F280130FC00032076280230E0
:0E00E000FC000E2076280430FC000A200800E8
:1000EE000E3083120313FD00FD0B7B280000080069
:1000FE007B14FB1F8A28F201FA1FFF30F200F10079
:0A010E00F000FA0DF20CFF300800BB
:06011800FB15FF3008009A
:10011E0083120313CA0105304A0203189D284A08A8
:10012E004907840020308000CA0A92284A084907ED
:10013E0084008001CA034A084907CB000A30F40044
:10014E00F5014708F0004808F1001A207808F00081
:10015E007908F1003030F0074B08840070088000F9
:10016E000A30F400F5014708F0004808F1001A20A3
:10017E007008C7007108C80000307106031DC92839
:10018E0000307006031DCC28CE28CA03A228080012
:10019E00FB14FB1FD928FF30F300F200F100F00032
:0801AE00FA0DF20CFF3008000D
:1001B60083120313C301C4013E08C5003F08C600ED
:1001C60080303F06F00080307002031DEC280030BE
:1001D6003E020318FA280130C3000030C4003E086E
:1001E600003CC5003F08031C013EC601C602450887
:1001F600C7004608C8004008C9008F200630C10065
:100206000030C2004208003C031D0B294108003C97
:100216000318262941084007F20001304102F00088
:100226000030031C013E4202F100700840078400C2
:100236000008F00072088400700880000130C102D6
:10024600031CC203052940088400203080004308AF
:10025600440403194429C101C2014108400784002E
:100266000008203A031D3B29C10A0319C20A302996
:100276000130C102031CC2034108400784002D302F
:0402860080000800EC
:10028A0041208A110A128000840AA20A0319A30AC9
:08029A00F003031D45290800D3
:1002A20083120313FB017308031D77080319A8299E
:1002B20072087606FA007708F3077E30031C652978
:1002C200F3020318AB296829F302031CAE29720852
:1002D200F8007108FC007008FD00F817F61703100B
:1002E200F201F101F0011830A0007D1C822974088E
:1002F200F00775080318750FF10776080318760FD3
:10030200F207F20CF10CF00CF80CFC0CFD0C0310D3
:10031200A00B7629F21B9229F80DF00DF10DF20DCA
:10032200F3037B1B701CA429F81FA429F00A0319EC
:10033200F10A0319F20A031DA429F20CF10CF00CC4
:10034200F30A0319AB29FA1FF2130030B029013066
:100352000320B0290230CF20B02904300E20000043
:02036200080091
:1003640083120313FB0173080319EF297208FA00BF
:10037400F2178E30F302F31FF229F309F30A08305F
:100384007302031CD529F300F10D7208F100F20188
:1003940008307302031CD529F300F10DF101730831
:1003A400031D0310DD2973080319DD290310F20C62
:1003B400F10CF30BD8297B1B711CE729031CE729DB
:1003C400F10A0319F20AF21BFE29FA1F012AF209A3
:1003D400F109F10A0319F20A012AF201F101012AD1
:1003E4007B14FB1F042AF201FA1F042AFF30F200D7
:1003F400F100FA0DF20C042A0130FC00062A003048
:10040400FC00062AFF30FC00FC0803190A2A7F209E
:0A0414007108F0007208F100080002
:10041E00831203137408003A031D2A2A7508003A42
:10042E00031D2A2A7608003A031D2A2A7708003A65
:10043E00031D2A2AFF30F000FF30F1007F30F2005A
:10044E00FF30F300C52A8312031377080319B92A64
:10045E0073080319BC2A720876068039FA00F2175F
:10046E00F617A0017208F8007108FC007008FD0074
:10047E007408FD027508031C750FFC027608031C38
:10048E00760FF802F801FC01FD01031C552A03103A
:10049E00F20CF10CF00CF80C0130A0007708F3020E
:1004AE00031C5F2A7E302007F3070318BF2A642A35
:1004BE007E302007F307031CC22A1830FA07FD0D01
:1004CE00FC0DF80DF00DF10DF20DA00D7408F002FB
:1004DE007508031C750FF1027608031C760FF202E5
:1004EE00760DA004201C7D2A7D14882A7408F0073E
:1004FE0075080318750FF10776080318760AF207C8
:10050E007D10FA031F307A05031D662A7B1B7D1CA6
:10051E00AF2A0310F00DF10DF20DA00D7408F002CC
:10052E007508031C750FF1027608031C760FF20294
:10053E00760D20040139FD070318FC0A0319F80A89
:10054E00031DAF2AF80CFC0CFD0CF30A0319BF2A8D
:10055E00FA1FF8137808F2007C08F1007D08F0000D
:10056E000030C42A01308C20C42A02300320C42A51
:0E057E000430CF20C42A08300E2000000800F0
:10058C00831203139F01C0309F042109F0007008EF
:10059C0083169F051F179F1783123E08F000F00D5E
:1005AC007010F00D7010F00D701070089F041F1477
:1005BC0077201F151F1DE42A0000E02A1F101E08BB
:1005CC00F100F00183161E08F0040030F10408005D
:1005DC00831603139816903083129800831687178E
:1005EC00071383128C1EFD2A1A08F000F72A080044
:1005FC00831203137008F8007108F000F101F20186
:10060C00F301FB01FC019630F300FA017008F100D4
:0C061C007808F000F801F2014820080006
:100628000D3083120313C70037200A30C700372064
:020638000800B8
:10063A0083120313C0013E0884000008BF003F086C
:10064A00003A0319322B3F08C7003720C00A400876
:0C065A003E0784000008BF00242B0800AD
:100666007E2333308316031399001815EE22BE013C
:10067600C622FE227008A4007108A5007208A60012
:100686007308A7000030F4000030F5007A30F60059
:100696008730F70051210030F4000030F5000030BB
:1006A600F6008930F7000F22B2217008A800710801
:1006B600A9007008BE007108BF002A30C000DB2008
:1006C6002A30BE001D230B30FB002630FC005D30B7
:1006D600FD00FD0B6C2BFC0B6C2BFB0B6C2B00003D
:0806E600000014233A2B762BCF
:1006FC0021308400013083120313F0007C30A200FF
:08070C000330A30045210800A1
:0206F8000F34BD
:02400E004A2F37
:00000001FF
