:020000006E2967
:1000060083120313F801F9011030FC00710DF80D8D
:10001600F90D7408F8027508031C750FF902031828
:100026001B287408F80775080318750FF9070310DD
:0A003600F00DF10DFC0B0928080085
:1000400083160313981826280000202883125E08C0
:04005000990008000B
:0E0054008312031354088A0053088200080028
:1000620083120313E1010530610203183F2861087E
:100072006007840020308000E10A342861086007AC
:1000820084008001E10361086007E2000A30F400A5
:10009200F5015E08F0005F08F10003207808F00027
:1000A2007908F1003030F00762088400700880009F
:1000B2000A30F400F5015E08F0005F08F100032049
:1000C2007008DE007108DF0000307106031D6B2826
:1000D20000307006031D6E287028E10344280800D2
:1000E2000E3083120313FD00FD0B7528000008007B
:1000F200831203131A08F100981C8128181218168B
:060102007108F000080086
:100108008316031398169030831298008316871766
:10011800071383128C1E93281A08F0008D280800F4
:0E0128000030831203138C1A0130F00008001F
:1001360083120313D701550884000008D600560819
:10014600003A0319B0285608DE002020D70A5708BF
:0C015600550784000008D600A22808000D
:100162002A208A110A128000840AD30A0319D40AA7
:08017200F003031DB128080091
:10017A0083120313DA01DB015508DC005608DD009F
:10018A0080305606F00080307002031DCE28003001
:10019A0055020318DC280130DA000030DB0055086C
:1001AA00003CDC005608031C013EDD01DD025C0850
:1001BA00DE005D08DF005708E00031200630D80075
:1001CA000030D9005908003C031DED285808003CAE
:1001DA000318082958085707F20001305802F0009E
:1001EA000030031C013E5902F100700857078400D1
:1001FA000008F00072088400700880000130D802FC
:10020A00031CD903E72857088400203080005A08C5
:10021A005B0403192629D801D90158085707840015
:10022A000008203A031D1D29D80A0319D90A1229E0
:10023A000130D802031CD9035808570784002D300F
:04024A008000080028
:10024E000D3083120313DE0020200A30DE00202042
:02025E00080096
:10026000FF3083120313C600FF30C700FF30C80001
:10027000FF309F01C0309F042009F00070088316F2
:0C0280009F051F179F1783121F14080012
:10028C00831203139F01C0309F042009F0007008F3
:10029C0083169F051F179F1783125508F000F00D4A
:1002AC007010F00D7010F00D701070089F041F147A
:1002BC0071201F151F1D6429000060291F101E08C6
:1002CC00F100F00183161E08F0040030F104080060
:1002DC00E62133308316031399001815842030213E
:1002EC00FF3083168500942070080319D9297920D2
:1002FC007008B7007008413A031DD929D501462171
:10030C0070088312B5007108B6000130D500462183
:10031C0070088312BA007108BB000230D500462168
:10032C0070088312B8007108B9003508A7003608A8
:10033C00A8003A08A5003B08A6007008B300710895
:10034C00B4003508D5003608D6002930D700BD20BA
:10035C002508D5002608D6003C30D700BD20330830
:10036C00D5003408D6004930D700BD202930D5003F
:10037C009B202130D5009B203C30D5009B20233086
:10038C00D5009B204930D5009B200230FB00043067
:10039C00FC00BA30FD00FD0BD129FC0BD129FB0B65
:0A03AC00D129000027217929DA2960
:1003CC0020308400053083120313F000E030D3009A
:0803DC000130D400B12008003B
:0203C0000F34F8
:0403C20023340034AC
:0403C60023340034A8
:02400E000A2F77
:00000001FF
