:100000000C9460000C9488000C9488000C94880078
:100010000C9488000C9488000C9488000C94880040
:100020000C9488000C9488000C9488000C94880030
:100030000C9488000C9488000C9488000C94880020
:100040000C94F1010C9488000C9488000C948800A6
:100050000C9488000C9488000C9488000C94880000
:100060000C943B020C948800D901DB01DE01E00115
:10007000E301E501E801EA01000000002500280095
:100080002B00040404040404040402020202020219
:10009000030303030303010204081020408001024C
:1000A00004081020010204081020000000080002CB
:1000B0000100000304070000000000000000F1033D
:1000C00011241FBECFEFD8E0DEBFCDBF11E0A0E00E
:1000D000B1E0EEE1F8E002C005900D92A031B10769
:1000E000D9F721E0A0E1B1E001C01D92AC3BB2071D
:1000F000E1F710E0C0E6D0E004C02197FE010E94C5
:100100000204CF35D107C9F70E9469030C940D048E
:100110000C940000E0913101F0913201309729F008
:1001200010929E0110929D0109940895CF93DF9340
:10013000AC01E091A501F091A6013097F1F090910A
:10014000A00180919F019817C0F090E0292F30E026
:100150002617370754F4D901AF5EBE4FEA01C20F2C
:10016000D31F88818C939F5FF1CF1092A001609381
:100170009F01CB01DF91CF910994DF91CF91089539
:10018000CF92DF92EF92FF920F931F93CF93DF9363
:100190006C017A018B01C0E0D0E0CE15DF0589F05B
:1001A000D8016D918D01D601ED91FC910190F08106
:1001B000E02DC6010995892B11F47E0102C021961C
:1001C000ECCFC701DF91CF911F910F91FF90EF907E
:1001D000DF90CF90089590E0FC01E655FF4F3491F9
:1001E000FC01EA56FF4F2491FC01EE57FF4FE491CA
:1001F000EE2309F43BC0332339F1333091F038F466
:100200003130A9F0323001F584B58F7D12C037301E
:1002100091F03830A1F03430B9F4809180008F7DB6
:1002200003C0809180008F77809380000DC084B5DB
:100230008F7784BD09C08091B0008F7703C0809113
:10024000B0008F7D8093B000F0E0EE0FFF1FE85804
:10025000FF4FA591B4918FB7F894EC91611103C051
:1002600020952E2301C02E2B2C938FBF089585ED52
:100270008093BC008091BC0084FDFCCF10929C0157
:10028000089540915301262F30E0240F311D213273
:100290003105DCF420919C012430C9F4FC0180E09C
:1002A00090E0861758F4309153012191DC01AD5C48
:1002B000BE4FA30FB11D2C930196F3CF8091530134
:1002C000680F6093530180E0089581E0089582E013
:1002D00008950895E091A00180919F01E81730F4FE
:1002E000F0E0EF5EFE4F808190E008958FEF9FEF8A
:1002F00008959091A00180919F01981750F4E92FE3
:10030000F0E0EF5EFE4F208130E09F5F9093A00110
:1003100002C02FEF3FEFC901089580919F0190E047
:100320002091A001821B91090895CF93DF9300D003
:10033000CDB7DEB7CB01642F49835A830E944101B8
:100340004981842F5A81952F0F900F90DF91CF9183
:100350000895CF93DF931F92CDB7DEB7698361E035
:10036000CE0101960E94410181E090E00F90DF9163
:10037000CF91089580919F0190E02091A001821B70
:1003800091091816190654F587EA91E00E9479013F
:1003900080931001082E000C990BAA0BBB0BFC01DB
:1003A000E154F109E830F105C8F4EC5CFF4F0C941E
:1003B000020461E001C060E08DE00EC061E001C0B8
:1003C00060E08CE009C061E001C060E08BE004C047
:1003D00061E001C060E08AE00C94EB0008950E94A7
:1003E00008041F920F920FB60F9211242F933F9380
:1003F0008F939F93AF93BF938091B8019091B90170
:10040000A091BA01B091BB013091B70123E0230F55
:100410002D3720F40196A11DB11D05C026E8230F3C
:100420000296A11DB11D2093B7018093B80190934E
:10043000B901A093BA01B093BB018091B30190912F
:10044000B401A091B501B091B6010196A11DB11DF5
:100450008093B3019093B401A093B501B093B6011A
:10046000BF91AF919F918F913F912F910F900FBEB0
:100470000F901F9018951F920F920FB60F92112494
:100480002F933F934F935F936F937F938F939F939C
:10049000AF93BF93EF93FF938091B900887F80362D
:1004A00009F49CC068F5883209F45BC090F480318F
:1004B00009F454C038F4882309F4F6C0883009F4EC
:1004C0004DC0F6C0883109F44CC0803209F45DC0DB
:1004D000EFC0803409F468C048F4803309F455C093
:1004E000883309F0E5C080937601D8C0803509F4DF
:1004F0004FC0883509F45DC0883409F0D9C0D6C032
:10050000883909F4C7C0A8F4883709F467C038F4FB
:10051000883609F463C0803709F460C0C9C08838E0
:1005200009F4B8C0803909F45FC0803809F0C0C050
:100530005BC0803B09F486C038F4803A09F466C099
:10054000883A09F47FC0B4C0803C09F4A7C0883C55
:1005500009F4A4C0883B09F48AC0AAC0809199011B
:1005600010C09091980180919701981770F5E091D3
:10057000980181E08E0F80939801F0E0E958FE4FDA
:1005800080818093BB0085EC86C0809376018EC00D
:10059000E091980181E08E0F809398018091BB00DB
:1005A000F0E0E958FE4F8083909198018091970187
:1005B0006EC0E091980181E08E0F80939801809148
:1005C000BB00F0E0E958FE4F808380919B018111D0
:1005D0006DC081E080939A0184EA61C083E08093DA
:1005E0009C0110927501CFCF80917501803208F087
:1005F00051C0E091750181E08E0F8093750180916B
:10060000BB00F0E0EB5AFE4F8083BDCF85EC8093BA
:10061000BC0010929C0180917501803230F4E09111
:100620007501F0E0EB5AFE4F10826091750170E0A9
:10063000E091A101F091A20185E591E00995109268
:10064000750136C084E080939C0110925401109291
:100650005301E091A301F091A40109958091530108
:10066000811105C081E08093530110923301E09124
:10067000540181E08E0F80935401F0E0ED5CFE4F59
:1006800080818093BB009091540180915301981711
:1006900008F479CF85E88093BC000AC085EC80938C
:1006A000BC0010929C0104C0109276010E94370198
:1006B000FF91EF91BF91AF919F918F917F916F913A
:1006C0005F914F913F912F910F900FBE0F901F9010
:1006D0001895789484B5826084BD84B5816084BDAA
:1006E00085B5826085BD85B5816085BD80916E00D0
:1006F000816080936E001092810080918100826001
:10070000809381008091810081608093810080913D
:1007100080008160809380008091B100846080932C
:10072000B1008091B00081608093B00080917A0028
:10073000846080937A0080917A00826080937A004E
:1007400080917A00816080937A0080917A0080683D
:1007500080937A001092C10080E18093BA008AE809
:1007600090E09093A4018093A30186E990E0909398
:10077000A2018093A1011092A00110929F011092FA
:100780009E0110929D0110929C0181E080939B013B
:1007900010929A0161E082E10E94EB0061E083E146
:1007A0000E94EB008091B9008E7F8093B900809108
:1007B000B9008D7F8093B90088E48093B80085E408
:1007C0008093BC008AEB91E09093A6018093A501F1
:1007D0008CE384B9C0E0D0E02097F1F30E940000E0
:1007E000FBCFE7EAF1E01382128288EE93E0A0E00B
:1007F000B0E084839583A683B78384E091E09183FE
:1008000080830895EE0FFF1F0590F491E02D099469
:0E08100081E090E0F8940C940D04F894FFCF72
:10081E0000000000A90195018D0179016A016901AD
:00000001FF
