:0200000087294E
:06000600000000000800EC
:10000C00063083120313FD00FD0B0A2800000800C4
:10001C0083120313B601B801B9011030BA000430D1
:10002C00390203183F28F03086008030F000700849
:10003C00063E84003A09F00070088000032003207B
:10004C000F300605F0007008B70070080319392846
:10005C003808B600370803193728B70CB713B60A97
:10006C0030280430B900BA0D3A100430B807B90A78
:08007C0015283608F000080009
:100084000E207008B5000F300605F00003194C2847
:0A009400062045283508F00008009A
:10009E00831603139818552800004F28831235082D
:0400AE0099000800AD
:0E00B200831203132F088A002E088200080014
:1000C000803083120313F0007008063E8400FF3076
:0400D00080000800A4
:0E00D4000030831203138C1A0130F000080074
:1000E200831203131A08F100981C792818121816A3
:0600F2007108F000080097
:1000F8008316031398169030831298008316871777
:10010800071383128C1E8B281A08F0008528080014
:100118008312031330082C3E84000008003A031DA4
:100128009E2830082C3EB200422032088400700815
:1001380080008C2830082C3E84000008013A031DFA
:10014800AD2830082C3E8400313080003130B500B5
:100158004F2030082C3E84000008023A031DBC28BA
:1001680030082C3E8400323080003230B5004F20F9
:1001780030082C3E84000008033A031DCB283008C1
:100188002C3E8400333080003330B5004F203008D7
:100198002C3E84000008053A031DDA2830082C3E5E
:1001A8008400343080003430B5004F2030082C3EB5
:1001B80084000008063A031DE92830082C3E840014
:1001C800353080003530B5004F2030082C3E840093
:1001D8000008073A031DF82830082C3E8400363002
:1001E80080003630B5004F2030082C3E84000008CF
:1001F800093A031D072930082C3E84003730800057
:100208003730B5004F2030082C3E840000080A3AE9
:10021800031D162930082C3E840038308000383001
:10022800B5004F2030082C3E840000080B3A031D0F
:10023800252930082C3E8400393080003930B5003B
:100248004F2030082C3E840000080D3A031D342945
:1002580030082C3E84002A3080002A30B5004F2018
:1002680030082C3E840000080E3A031D432930084C
:100278002C3E8400303080003030B5004F203008EC
:100288002C3E840000080F3A031D522930082C3EEA
:100298008400233080002330B5004F2030082C3EE6
:1002A80084000008200603195F2930082C3E8400CA
:1002B8000008A000642930082C3E840080018C28A6
:0202C80008002C
:1002CA0083120313B401320884000008B300330810
:1002DA00003A03197A293308B5004F20B40A3408C2
:0C02EA00320784000008B3006C290800F3
:1002F60059208A110A128000840AAE0A0319AF0A2D
:08030600F003031D7B29080030
:10030E0083120313A0014B30A1006530A200793097
:10031E00A3005030A4006130A5006430A600203048
:10032E00A7003430A8002A30A9003330AA00AB0150
:10033E00AC0133308316990018157C202130B200A1
:10034E0065210A30B5004F200D30B5004F206020DA
:10035E006A2070080319BB2971207008AD0070085F
:0C036E00413A031DBB298C20AF29BC299B
:02400E004A2F37
:00000001FF
