:02000000C52C0D
:10000600FB14FB1F0D28FF30F300F200F100F00097
:08001600FA0DF20CFF300800A6
:0E001E00F201F101F001F801F30100300800D9
:10002C007B15FB1F20280130F300F201F101F001D8
:08003C00FA0DF20CFF30080080
:08004400FA1FF213003008005E
:10004C0083120313FA017308031D7A147708031D36
:10005C00FA147A0803197228033A03193D287A18FE
:10006C003A28F61F70286E28F21F6E287028720826
:10007C008039FA00F21376088039F6137A060319E0
:10008C004B287A0803196E28702877087302031915
:10009C005228031C66286A2876087202031959280C
:1000AC00031C66286A287508710203196028031C52
:1000BC0066286A28740870020319722803186A28C3
:1000CC00FA08031970286E28FA0803196E2870288C
:1000DC00031408000310080003140315080008009B
:1000EC008316031398187C280000762883124E0878
:0400FC00990008005F
:10010000A0017208031D95287108F2007008F10023
:10011000F001A0157208031D95287108F200F10185
:10012000A011201672080319A3282008F302031D4A
:10013000031CA7280310F21BAB28F00DF10DF20DE4
:10014000F30B9B28A7280130FC000F20AE280230BB
:0E015000FC001620AE280430FC00222008001F
:10015E000E3083120313FD00FD0BB32800000800C0
:0E016E008312031340088A003F088200080035
:10017C00831203134E08F2007208F100F20A4F08C2
:10018C00F000CF0A700884000008F00071088400A9
:10019C00700880007108840000080319D628C22852
:0601AC004E08F0000800FF
:1001B20083120313FD01F801700803190034740659
:1001C200FA00FA1BFD09FB01F41FE928F409F40AFD
:1001D200F01FED28F009F00A70087404FA00FA1B07
:1001E20011297408F802F00D700DF80D7408F80763
:1001F200F00D0630FC00700DF80D74087018F8024E
:10020200701CF807F00DFC0BFC28701CF8077B181B
:100212001F29FD1F0034F009F00AF809F80A00341A
:10022200F41F1C29F01B19297008F800F0010A2993
:10023200F001F00A0034F009FB0AF228F80A740807
:100242007802031D0A29F801F00AF01F0A29FF3477
:020252000800A2
:1002540083120313FB017308031D77080319812913
:1002640072087606FA007708F3077E30031C3E29ED
:10027400F302031884294129F302031C8729720815
:10028400F8007108FC007008FD00F817F617031059
:10029400F201F101F0011830A0007D1C5B29740803
:1002A400F00775080318750FF10776080318760F21
:1002B400F207F20CF10CF00CF80CFC0CFD0C031022
:1002C400A00B4F29F21B6B29F80DF00DF10DF20D67
:1002D400F3037B1B701C7D29F81F7D29F00A031989
:1002E400F10A0319F20A031D7D29F20CF10CF00C3A
:1002F400F30A03198429FA1FF21300308929013003
:100304000F20892902300320892904301620000097
:020314000800DF
:06031600FB15FF3008009A
:10031C0083120313CC01CD014108C8004208C90067
:10032C004308CA004408CB004B08FF3A031DA82918
:10033C004A08FF3A031DA8294908FF3A031DA829BA
:10034C004808FF3A031DB2294508CE002130CF00E2
:10035C00BE200330F0008B2B0130C600CA1FC12910
:10036C0080304A06F0007008CA00C60A45088400AE
:10037C002D308000C50A0030F0004B06031DD0293B
:10038C0070084A06031DD02970084906031DD029A0
:10039C004808003A031DD9294508CE002530CF0066
:1003AC00BE20F0018B2B4B08FF3A031DE7294A08AE
:1003BC00003A031DE7294908003A031DE7294808BC
:1003CC00003A031DF1294508CE002730CF00BE208E
:1003DC004608F0008B2B0030F4000030F5000030A4
:1003EC00F6007F30F7004808F0004908F1004A0891
:1003FC00F2004B08F3002620013003180030F00007
:10040C0070080319242A4808F0004908F1004A082A
:10041C00F2004B08F3000030F4000030F5002030FF
:10042C00F6008230F7002A217008C8007108C90054
:10043C007208CA007308CB00CD03F1290030F40018
:10044C000030F5002030F6008230F7004808F0004C
:10045C004908F1004A08F2004B08F300262001304D
:10046C00031C0030F00070080319572A4808F000EC
:10047C004908F1004A08F2004B08F300CD30F400B3
:10048C00CC30F5004C30F6007B30F7002A21700898
:10049C00C8007108C9007208CA007308CB00CD0AE5
:1004AC00242AFF304805F800FF304905F9007F3059
:1004BC004A05FA0000304B05FB007808F400790877
:1004CC00F5007A08F6007B08F700F40DF50DF60D33
:1004DC00F70D741000304805F00000304905F100AC
:1004EC0000304A05F200FF304B05F3007008C800DD
:1004FC007108C9007208CA007308CB00740848045C
:10050C00F00075084904F10076084A04F2007708F7
:10051C004B04F3007008C8007108C9007208CA00C7
:10052C007308CB007F304B02F0007008C70001301D
:10053C00CB007008F4004808F0004908F1004A08A4
:10054C00F2004B08F30074080319B32AF00DF10DF7
:10055C00F20DF30D7010FF3EAA2A7008C800710846
:10056C00C9007208CA007308CB004B08303EF0007B
:10057C004508840070088000C50A80304D06F000E4
:10058C008030013A7002031CD42A8030063AF00005
:10059C0080304D067002031CD42ADB2A45088400E7
:1005AC002E308000C50A0130CC000630C700470849
:1005BC00003A0319392BCB014808F0004908F10027
:1005CC004A08F2004B08F300F00DF10DF20DF30D9B
:1005DC007010F00DF10DF20DF30D70104808F007CE
:1005EC0049080318490FF1074A0803184A0FF20784
:1005FC004B0803184B0FF3077008C8007108C900AB
:10060C007208CA007308CB004808F0004908F100D2
:10061C004A08F2004B08F300F00DF10DF20DF30D4A
:10062C0070107008C8007108C9007208CA007308FD
:10063C00CB004B08303EF000450884007008800069
:10064C00C50A4C08003A031D372BCD034D08003A60
:10065C00031D372B450884002E308000C50A01305D
:10066C00CC00C703DD2AFF30450784000008303A70
:10067C00031D422BC503392BFF30450784000008AE
:10068C002E3A031D4A2BC5034D08003A0319872B3C
:10069C004508840065308000C50A80304D06F000A6
:1006AC008030003A70020318632B450884002D300B
:1006BC008000C50A4D08003CCD004D08C7008030B5
:1006CC00093AF00080304D0670020318792B0A307D
:1006DC00F4004708F000D9203030F00745088400BA
:1006EC0070088000C50A0A30F4004708F000D920D1
:1006FC007808F0003030F00745088400700880005E
:0C070C00C50A450884008001F0010800C7
:10071800B7208A110A128000840ABF0A0319C00A86
:08072800F003031D8C2B0800F7
:10073000831203137408003A031DB32B7508003AA3
:10074000031DB32B7608003A031DB32B7708003A3C
:10075000031DB32BFF30F000FF30F1007F30F200BB
:10076000FF30F3004E2C8312031377080319422C39
:1007700073080319452C720876068039FA00F217BF
:10078000F617A0017208F8007108FC007008FD005F
:100790007408FD027508031C750FFC027608031C23
:1007A000760FF802F801FC01FD01031CDE2B03109B
:1007B000F20CF10CF00CF80C0130A0007708F302F9
:1007C000031CE82B7E302007F3070318482CED2B81
:1007D0007E302007F307031C4B2C1830FA07FD0D61
:1007E000FC0DF80DF00DF10DF20DA00D7408F002E6
:1007F0007508031C750FF1027608031C760FF202D0
:10080000760DA004201C062C7D14112C7408F00712
:1008100075080318750FF10776080318760AF207B2
:100820007D10FA031F307A05031DEF2B7B1B7D1C07
:10083000382C0310F00DF10DF20DA00D7408F0022C
:100840007508031C750FF1027608031C760FF2027F
:10085000760D20040139FD070318FC0A0319F80A74
:10086000031D382CF80CFC0CFD0CF30A0319482C62
:10087000FA1FF8137808F2007C08F1007D08F000F8
:1008800000304D2C01308B214D2C02300F204D2C8F
:0E089000043003204D2C083016200000080014
:10089E00831203137008F8007108F000F101F201E1
:1008AE00F301FB01FC019630F300FA017008F10030
:0C08BE007808F000F801F201802008002A
:1008CA0083120313C301410884000008C2004208CE
:1008DA00003A03197A2C4208CE007620C30A43084C
:0C08EA00410784000008C2006C2C0800CC
:1008F600831203131A08F100981C832C1812181679
:060906007108F00008007A
:10090C00831603139816903083129800831687175A
:10091C00071383128C1E952C1A08F0008F2C0800DC
:0E092C000030831203138C1A0130F000080013
:10093A00831203139F01C0309F042B09F000700833
:10094A0083169F051F179F1783124108F000F00DA9
:10095A007010F00D7010F00D701070089F041F14C5
:10096A00AF201F151F1DBB2C0000B72C1F101E081F
:10097A00F100F00183161E08F0040030F1040800AB
:10098A002A253330831603139900181586249624D2
:10099A0070080319172D7B247008BE007008413AAD
:1009AA00031D0A2DC1019D244F247008AC00710853
:1009BA00AD007208AE007308AF000030F4000030DA
:1009CA00F5007A30F6008730F7002A210030F4006B
:1009DA000030F5000030F6008930F70098237008DF
:1009EA00B0007108B1007208B2007308B300700851
:1009FA00C1007108C2007208C3007308C400343011
:100A0A00C5008E213430C10065240230FB00043059
:100A1A00FC00BA30FD00FD0B102DFC0B102DFB0B5A
:080A2A00102D0000CC2C182D4A
:100A5400213084000B3083120313F0001E30BF00DA
:080A64000530C0008C230800DE
:080A3C004E3461344E340034E5
:040A44003034003416
:080A480049344E3446340034F9
:020A50000F3461
:02400E004A2F37
:00000001FF
