:020000002529B0
:0E000600213083120313FD00FD0B07280800B4
:06001400000000000800DE
:10001A000F3083120313FC004730FD00FD0B132839
:0A002A00FC0B132800000000080082
:1000340083120313B61B2028061321280617361B28
:100044002528861226288616B61A2A2806122B2850
:100054000616361A2F288611302886152C183428AF
:1000640006143528061006150A200611B6193C2870
:1000740006133D280617361941288612422886168B
:10008400B618462806124728061636184B28861135
:100094004C2886152C1850280614512806100615CD
:1000A4000A2006112C1C58280D205928032008006A
:1000B400831203132C103508B6001A202C140800E0
:0E00C4008312031330088A002F088200080000
:1000D20083160313061106108611061286120613E2
:1000E20083120611061006138612061286110D20BF
:1000F2000D200D200616861506150A2006110D2064
:1001020006150A2006110D2006150A2006110D20DB
:10011200861106150A2006110D2006150A20061161
:100122000612061706150A2006110D20061386155B
:1001320006150A200611861106150A2006110D2041
:1001420006150A200611861506150A2006110D202D
:10015200861106150A20061106178616061686153A
:0C01620006150A2006110D202C140800C0
:10016E00C928803083120313B100DC28C030B100DF
:10017E00DC289430B100DC28D430B100DC2880308B
:10018E00B100DC28831203133108013A0319B82891
:10019E003108023A0319BD283108033A0319C02861
:1001AE003108043A0319C328C6283203F000310877
:1001BE00F0077008B1007008B6001A202C10B401B8
:1001CE0034083307840000080319F5283408330770
:1001DE0084000008B5005A20B40AE7282C14080041
:1001EE008316031398169030831298008316871780
:1001FE00071383128C1E06291A08F0000029080026
:0E020E000030831203138C1A0130F000080038
:10021C00831203131A08F100981C162918121816C9
:06022C007108F00008005B
:1002320062208A110A128000840AAF0A0319B00AE6
:08024200F003031D1929080057
:10024A00413083120313A0006C30A1006130A20078
:10025A002030A3004830A4006130A5007330A60006
:10026A007330A7006930A8006E30A9006530AA0073
:10027A00AB0169203330831699001815F720013035
:10028A00B6001A200C30B6001A200130B100033033
:10029A00B2002030B300B7201530FB004B30FC0011
:1002AA00BE30FD00FD0B5729FC0B5729FB0B5729C4
:1002BA0000000130B6001A200721700803197B29B3
:1002CA000E217008AD00AE0100302E06031D6F2905
:1002DA0041302D06031D78290130B6001A2002305C
:1002EA00B6001A207B292D08B5005A2061297C29DD
:02400E004A2F37
:00000001FF
