:100000000C9458000C9480000C9480000C94800098
:100010000C9480000C9480000C9480000C94800060
:100020000C9480000C9480000C9480000C94800050
:100030000C9480000C9480000C9480000C94800040
:100040000C94F5020C9480000C94C3020C949D0255
:100050000C9480000C9480000C9480000C94800020
:100060000C943F030C948000000000002500280041
:100070002B00040404040404040402020202020229
:10008000030303030303010204081020408001025C
:1000900004081020010204081020000000080002DB
:1000A00001000003040700000000000000006D04D0
:1000B00011241FBECFEFD8E0DEBFCDBF11E0A0E01E
:1000C000B1E0ECEFFBE002C005900D92A432B10765
:1000D000D9F722E0A4E2B1E001C01D92AA36B2072E
:1000E000E1F710E0C8E5D0E004C02197FE010E94CE
:1000F000F105C735D107C9F70E94A6040C94FC0589
:100100000C94000090E0FC01E656FF4F2491FC01A6
:10011000EA57FF4F3491FC01EE58FF4FE491EE2374
:10012000B1F1222339F1233091F038F42130A9F0D4
:10013000223001F584B58F7D12C0273091F0283030
:10014000A1F02430B9F4809180008F7D03C08091AC
:1001500080008F77809380000DC084B58F7784BD39
:1001600009C08091B0008F7703C08091B0008F7D6F
:100170008093B000F0E0EE0FFF1FE859FF4FA5910C
:10018000B4918FB7F894EC913E2B3C938FBF0895B8
:10019000CF92DF92EF92FF920F931F93CF93DF9353
:1001A0006C017A018B01C0E0D0E0CE15DF0589F04B
:1001B000D8016D918D01D601ED91FC910190F081F6
:1001C000E02DC6010995892B11F47E0102C021960C
:1001D000ECCFC701DF91CF911F910F91FF90EF906E
:1001E000DF90CF900895FC01918D828D981761F07A
:1001F000828DDF01A80FB11D5D968C91928D9F5F5E
:100200009F73928F90E008958FEF9FEF0895FC0108
:10021000918D828D981731F0828DE80FF11D858DBB
:1002200090E008958FEF9FEF0895FC01918D228D4E
:10023000892F90E0805C9F4F821B91098F739927D3
:10024000089581EC91E00E94150121E0892B09F4C9
:1002500020E0822F0895FC01848DDF01A80FB11DDD
:10026000A35ABF4F2C91848D90E001968F739927EC
:10027000848FA689B7892C93A089B1898C918064D9
:100280008C93938D848D981306C00288F389E02D9A
:1002900080818F7D80830895EF92FF920F931F934B
:1002A000CF93DF93EC0181E0888F9B8D8C8D981329
:1002B00005C0E889F989808185FD24C0F62E0B8D63
:1002C00010E00F5F1F4F0F731127E02E8C8DE81287
:1002D0000CC00FB607FCFACFE889F989808185FF49
:1002E000F5CFCE010E942B01F1CF8B8DFE01E80FDF
:1002F000F11DE35AFF4FF0820B8FEA89FB89808161
:10030000806207C0EE89FF896083E889F98980816E
:100310008064808381E090E0DF91CF911F910F9105
:10032000FF90EF900895CF93DF93EC01888D8823A1
:10033000C9F0EA89FB89808185FD05C0A889B98952
:100340008C9186FD0FC00FB607FCF5CF808185FF2D
:10035000F2CFA889B9898C9185FFEDCFCE010E949B
:100360002B01E7CFDF91CF91089580E090E0892BBA
:1003700029F00E94210181110C94000008953FB7DB
:10038000F8948091700190917101A0917201B091E7
:10039000730126B5A89B05C02F3F19F00196A11D3A
:1003A000B11D3FBFBA2FA92F982F8827820F911D0B
:1003B000A11DB11DBC01CD0142E0660F771F881F52
:1003C000991F4A95D1F7089585ED8093BC008091DF
:1003D000BC0084FDFCCF10929C0108954091460121
:1003E000262F30E0240F311D21323105DCF420911D
:1003F0009C012430C9F4FC0180E090E0861758F499
:10040000309146012191DC01AC5DBE4FA30FB11DBF
:100410002C930196F3CF80914601680F60934601BB
:1004200080E0089581E0089582E00895089581E0D4
:1004300090E03091750120917401321710F480E042
:1004400090E0919581959109089580917501909121
:100450007401891730F48F5F8093750180E090E01C
:1004600008958FEF9FEF08958091740190E020919F
:100470007501821B91090895CF92DF92EF92FF924E
:100480000F931F93CF93DF937C01262F972F8A0121
:100490008091C001882391F0C62FD72F6E01C40E22
:1004A000D51ECC15DD0571F06991D701ED91FC9158
:1004B0000190F081E02DC7010995F3CF642F822FC1
:1004C0000E94EE01C801DF91CF911F910F91FF9023
:1004D000EF90DF90CF900895CF93DF931F92CDB729
:1004E000DEB769832091C0012223D1F02091BD01A4
:1004F000203240F021E030E0FC013383228380E0B1
:1005000090E015C08091BE01E82FF0E0E356FE4F69
:10051000998190838F5F8093BE018093BD0105C058
:1005200061E0CE0101960E94EE0181E090E00F9023
:10053000DF91CF9108950E94F7051F920F920FB699
:100540000F9211242F933F934F935F936F937F9359
:100550008F939F93AF93BF93EF93FF9381EC91E0C1
:100560000E942B01FF91EF91BF91AF919F918F91CD
:100570007F916F915F914F913F912F910F900FBE9F
:100580000F901F9018951F920F920FB60F92112483
:100590002F938F939F93EF93FF93E091D101F0916D
:1005A000D2018081E091D701F091D80182FD12C083
:1005B00090818091DA018F5F8F732091DB01821728
:1005C00051F0E091DA01F0E0EF53FE4F958F809308
:1005D000DA0101C08081FF91EF919F918F912F915E
:1005E0000F900FBE0F901F9018951F920F920FB68D
:1005F0000F9211242F933F938F939F93AF93BF93A9
:1006000080916C0190916D01A0916E01B0916F018C
:1006100030916B0123E0230F2D3720F40196A11DAB
:10062000B11D05C026E8230F0296A11DB11D209320
:100630006B0180936C0190936D01A0936E01B09358
:100640006F018091700190917101A0917201B09140
:1006500073010196A11DB11D8093700190937101EA
:10066000A0937201B0937301BF91AF919F918F914D
:100670003F912F910F900FBE0F901F9018951F92D2
:100680000F920FB60F9211242F933F934F935F93C6
:100690006F937F938F939F93AF93BF93EF93FF934A
:1006A0008091B900887F803609F49CC068F5883253
:1006B00009F45BC090F4803109F454C038F4882305
:1006C00009F4F6C0883009F44DC0F6C0883109F449
:1006D0004CC0803209F45DC0EFC0803409F468C0BA
:1006E00048F4803309F455C0883309F0E5C080939D
:1006F0009A01D8C0803509F44FC0883509F45DC02F
:10070000883409F0D9C0D6C0883909F4C7C0A8F424
:10071000883709F467C038F4883609F463C0803735
:1007200009F460C0C9C0883809F4B8C0803909F438
:100730005FC0803809F0C0C05BC0803B09F486C050
:1007400038F4803A09F466C0883A09F47FC0B4C02E
:10075000803C09F4A7C0883C09F4A4C0883B09F494
:100760008AC0AAC08091770110C0909199018091B0
:100770009801981770F5E091990181E08E0F8093B0
:100780009901F0E0E858FE4F80818093BB0085EC32
:1007900086C080939A018EC0E091990181E08E0F0E
:1007A000809399018091BB00F0E0E858FE4F808370
:1007B00090919901809198016EC0E091990181E03A
:1007C0008E0F809399018091BB00F0E0E858FE4FB6
:1007D000808380919B0181116DC081E080937601BF
:1007E00084EA61C083E080939C0110926A01CFCFBC
:1007F00080916A01803208F051C0E0916A0181E085
:100800008E0F80936A018091BB00F0E0E65BFE4FA3
:100810008083BDCF85EC8093BC0010929C018091B9
:100820006A01803230F4E0916A01F0E0E65BFE4F4D
:10083000108260916A0170E0E0914801F0914901F5
:100840008AE491E0099510926A0136C084E08093B1
:100850009C011092470110924601E0914401F091F1
:100860004501099580914601811105C081E0809381
:10087000460110922401E091470181E08E0F8093A0
:100880004701F0E0EC5DFE4F80818093BB009091CA
:10089000470180914601981708F479CF85E8809345
:1008A000BC000AC085EC8093BC0010929C0104C07F
:1008B00010929A010E94E401FF91EF91BF91AF91D4
:1008C0009F918F917F916F915F914F913F912F9168
:1008D0000F900FBE0F901F901895E1ECF1E013827E
:1008E000128288EE93E0A0E0B0E084839583A68333
:1008F000B78324E031E03183208325EC30E0358775
:10090000248724EC30E03787268720EC30E0318BD9
:10091000208B21EC30E0338B228B22EC30E0358BC6
:10092000248B26EC30E0378B268B118E128E138EA3
:10093000148EEEE5F2E01382128284839583A683FF
:10094000B78384E191E0918380830895789484B59E
:10095000826084BD84B5816084BD85B5826085BDBB
:1009600085B5816085BD80916E00816080936E0049
:10097000109281008091810082608093810080913B
:1009800081008160809381008091800081608093EC
:1009900080008091B10084608093B1008091B000AC
:1009A00081608093B00080917A00846080937A00A7
:1009B00080917A00826080937A0080917A008160D1
:1009C00080937A0080917A00806880937A001092F8
:1009D000C10010927501109274011092BE01109224
:1009E000BD0110929C0181E080939B0110927601E1
:1009F00082E10E94820083E10E9482008091B9001E
:100A00008E7F8093B9008091B9008D7F8093B9006B
:100A100088E48093B80085E48093BC00E091D10124
:100A2000F091D20182E08083E091CD01F091CE017E
:100A30001082E091CF01F091D0018FEC8083109271
:100A4000D901E091D501F091D60186E08083E09153
:100A5000D301F091D401808180618083E091D30142
:100A6000F091D401808188608083E091D301F0917E
:100A7000D401808180688083E091D301F091D4011A
:100A800080818F7D808311E008E092E0792E6624DA
:100A90006A94C8E7D1E025EE522E35EC432E81EC66
:100AA00091E00E941501181619060CF097C081EC10
:100AB00091E00E94F300F82E1093C0010093BF0153
:100AC0001092BE011092BD01682F8EE592E00E9447
:100AD0006C029091BD01913208F041C080919C015F
:100AE0008111FCCF70929C0110939B0160929A013E
:100AF0001092990190939801ADE9B1E0E8E7F1E037
:100B00008E2F8C1B891718F48D918193F9CF109239
:100B100077019091770190619093770180917601B0
:100B2000813069F410927601809177018093BB0047
:100B30008091BC0083FDF8CF4092BC0002C050926F
:100B4000BC0080919C018230E1F380919A018F3F3B
:100B500031F080919A01803211F080919A011092C7
:100B6000BE011092BD011092C001E091C101F0914F
:100B7000C2010190F081E02D6F2D81EC91E009958B
:100B800042E050E060E271E081EC91E00E94C80038
:100B90000E94BF014B015C018FE0C82ED12CE12CDB
:100BA000F12C0E94BF01DC01CB0188199909AA0927
:100BB000BB09883E9340A105B10558F081E0C81AF1
:100BC000D108E108F10828EE820E23E0921EA11C54
:100BD000B11CC114D104E104F10419F70E94B5015C
:100BE0005ECFEE0FFF1F0590F491E02D099481E098
:0C0BF00090E0F8940C94FC05F894FFCF02
:100BFC00000000004C01C8001501F300070193012F
:100C0C00000000006C023C0234022502170216029E
:040C1C000D0A0000BD
:00000001FF
